{
  "_format": "hh-sol-artifact-1",
  "contractName": "CertificateManager",
  "sourceName": "contracts/CertificateManager.sol",
  "abi": [
    {
      "inputs": [],
      "stateMutability": "nonpayable",
      "type": "constructor"
    },
    {
      "anonymous": false,
      "inputs": [
        {
          "indexed": false,
          "internalType": "string",
          "name": "id",
          "type": "string"
        },
        {
          "indexed": false,
          "internalType": "address",
          "name": "recipient",
          "type": "address"
        }
      ],
      "name": "CertificateCreated",
      "type": "event"
    },
    {
      "anonymous": false,
      "inputs": [
        {
          "indexed": false,
          "internalType": "string",
          "name": "id",
          "type": "string"
        },
        {
          "indexed": false,
          "internalType": "bool",
          "name": "isValid",
          "type": "bool"
        }
      ],
      "name": "CertificateVerified",
      "type": "event"
    },
    {
      "inputs": [
        {
          "internalType": "string",
          "name": "_id",
          "type": "string"
        },
        {
          "internalType": "string",
          "name": "_issuer",
          "type": "string"
        },
        {
          "internalType": "address",
          "name": "_recipient",
          "type": "address"
        },
        {
          "internalType": "string",
          "name": "_data",
          "type": "string"
        }
      ],
      "name": "generateCertificate",
      "outputs": [],
      "stateMutability": "nonpayable",
      "type": "function"
    },
    {
      "inputs": [
        {
          "internalType": "address",
          "name": "ad",
          "type": "address"
        }
      ],
      "name": "getMyCertificates",
      "outputs": [
        {
          "internalType": "string",
          "name": "name",
          "type": "string"
        },
        {
          "internalType": "string",
          "name": "phoneNumber",
          "type": "string"
        },
        {
          "internalType": "string[]",
          "name": "certificateIDs",
          "type": "string[]"
        }
      ],
      "stateMutability": "view",
      "type": "function"
    },
    {
      "inputs": [
        {
          "internalType": "string",
          "name": "_name",
          "type": "string"
        },
        {
          "internalType": "string",
          "name": "_phoneNumber",
          "type": "string"
        },
        {
          "internalType": "address",
          "name": "ad",
          "type": "address"
        }
      ],
      "name": "setRecipientDetails",
      "outputs": [],
      "stateMutability": "nonpayable",
      "type": "function"
    },
    {
      "inputs": [
        {
          "internalType": "string",
          "name": "_id",
          "type": "string"
        }
      ],
      "name": "verifyCertificate",
      "outputs": [
        {
          "internalType": "bool",
          "name": "isValid",
          "type": "bool"
        },
        {
          "internalType": "string",
          "name": "issuer",
          "type": "string"
        },
        {
          "internalType": "string",
          "name": "data",
          "type": "string"
        }
      ],
      "stateMutability": "view",
      "type": "function"
    }
  ],
  "bytecode": "0x608060405234801561001057600080fd5b5033600260006101000a81548173ffffffffffffffffffffffffffffffffffffffff021916908373ffffffffffffffffffffffffffffffffffffffff1602179055506114d7806100616000396000f3fe608060405234801561001057600080fd5b506004361061004c5760003560e01c806339a28195146100515780638b23d8751461006d578063a753bf4e1461009f578063f99cdd53146100bb575b600080fd5b61006b60048036038101906100669190610c36565b6100ed565b005b61008760048036038101906100829190610cf1565b6103b0565b60405161009693929190610dd4565b60405180910390f35b6100b960048036038101906100b49190610e19565b61065e565b005b6100d560048036038101906100d09190610ea4565b610757565b6040516100e493929190610fdd565b60405180910390f35b600260009054906101000a900473ffffffffffffffffffffffffffffffffffffffff1673ffffffffffffffffffffffffffffffffffffffff163373ffffffffffffffffffffffffffffffffffffffff161461017d576040517f08c379a00000000000000000000000000000000000000000000000000000000081526004016101749061109b565b60405180910390fd5b60008460405161018d91906110f7565b908152602001604051809103902060040160009054906101000a900460ff16156101ec576040517f08c379a00000000000000000000000000000000000000000000000000000000081526004016101e39061115a565b60405180910390fd5b60006040518060a001604052808681526020018581526020018473ffffffffffffffffffffffffffffffffffffffff1681526020018381526020016001151581525090508060008660405161024191906110f7565b908152602001604051809103902060008201518160000190816102649190611390565b50602082015181600101908161027a9190611390565b5060408201518160020160006101000a81548173ffffffffffffffffffffffffffffffffffffffff021916908373ffffffffffffffffffffffffffffffffffffffff16021790555060608201518160030190816102d79190611390565b5060808201518160040160006101000a81548160ff021916908315150217905550905050600160008473ffffffffffffffffffffffffffffffffffffffff1673ffffffffffffffffffffffffffffffffffffffff1681526020019081526020016000206002018590806001815401808255809150506001900390600052602060002001600090919091909150908161036f9190611390565b507fe960a2faa90c9264fbc0ba64bdecadc134869b87c9e59709ab216a67bdc7734085846040516103a1929190611471565b60405180910390a15050505050565b6000606080600080856040516103c691906110f7565b90815260200160405180910390206040518060a00160405290816000820180546103ef906111a9565b80601f016020809104026020016040519081016040528092919081815260200182805461041b906111a9565b80156104685780601f1061043d57610100808354040283529160200191610468565b820191906000526020600020905b81548152906001019060200180831161044b57829003601f168201915b50505050508152602001600182018054610481906111a9565b80601f01602080910402602001604051908101604052809291908181526020018280546104ad906111a9565b80156104fa5780601f106104cf576101008083540402835291602001916104fa565b820191906000526020600020905b8154815290600101906020018083116104dd57829003601f168201915b505050505081526020016002820160009054906101000a900473ffffffffffffffffffffffffffffffffffffffff1673ffffffffffffffffffffffffffffffffffffffff1673ffffffffffffffffffffffffffffffffffffffff168152602001600382018054610569906111a9565b80601f0160208091040260200160405190810160405280929190818152602001828054610595906111a9565b80156105e25780601f106105b7576101008083540402835291602001916105e2565b820191906000526020600020905b8154815290600101906020018083116105c557829003601f168201915b505050505081526020016004820160009054906101000a900460ff161515151581525050905080608001511561062d5780608001518160200151826060015193509350935050610657565b60006040518060200160405280600081525060405180602001604052806000815250935093509350505b9193909250565b6040518060600160405280848152602001838152602001600067ffffffffffffffff8111156106905761068f610aad565b5b6040519080825280602002602001820160405280156106c357816020015b60608152602001906001900390816106ae5790505b50815250600160008373ffffffffffffffffffffffffffffffffffffffff1673ffffffffffffffffffffffffffffffffffffffff168152602001908152602001600020600082015181600001908161071b9190611390565b5060208201518160010190816107319190611390565b50604082015181600201908051906020019061074e9291906109a4565b50905050505050565b60608060606000600160008673ffffffffffffffffffffffffffffffffffffffff1673ffffffffffffffffffffffffffffffffffffffff16815260200190815260200160002090508060000181600101826002018280546107b7906111a9565b80601f01602080910402602001604051908101604052809291908181526020018280546107e3906111a9565b80156108305780601f1061080557610100808354040283529160200191610830565b820191906000526020600020905b81548152906001019060200180831161081357829003601f168201915b50505050509250818054610843906111a9565b80601f016020809104026020016040519081016040528092919081815260200182805461086f906111a9565b80156108bc5780601f10610891576101008083540402835291602001916108bc565b820191906000526020600020905b81548152906001019060200180831161089f57829003601f168201915b5050505050915080805480602002602001604051908101604052809291908181526020016000905b82821015610990578382906000526020600020018054610903906111a9565b80601f016020809104026020016040519081016040528092919081815260200182805461092f906111a9565b801561097c5780601f106109515761010080835404028352916020019161097c565b820191906000526020600020905b81548152906001019060200180831161095f57829003601f168201915b5050505050815260200190600101906108e4565b505050509050935093509350509193909250565b8280548282559060005260206000209081019282156109ec579160200282015b828111156109eb5782518290816109db9190611390565b50916020019190600101906109c4565b5b5090506109f991906109fd565b5090565b5b80821115610a1d5760008181610a149190610a21565b506001016109fe565b5090565b508054610a2d906111a9565b6000825580601f10610a3f5750610a5e565b601f016020900490600052602060002090810190610a5d9190610a61565b5b50565b5b80821115610a7a576000816000905550600101610a62565b5090565b6000604051905090565b600080fd5b600080fd5b600080fd5b600080fd5b6000601f19601f8301169050919050565b7f4e487b7100000000000000000000000000000000000000000000000000000000600052604160045260246000fd5b610ae582610a9c565b810181811067ffffffffffffffff82111715610b0457610b03610aad565b5b80604052505050565b6000610b17610a7e565b9050610b238282610adc565b919050565b600067ffffffffffffffff821115610b4357610b42610aad565b5b610b4c82610a9c565b9050602081019050919050565b82818337600083830152505050565b6000610b7b610b7684610b28565b610b0d565b905082815260208101848484011115610b9757610b96610a97565b5b610ba2848285610b59565b509392505050565b600082601f830112610bbf57610bbe610a92565b5b8135610bcf848260208601610b68565b91505092915050565b600073ffffffffffffffffffffffffffffffffffffffff82169050919050565b6000610c0382610bd8565b9050919050565b610c1381610bf8565b8114610c1e57600080fd5b50565b600081359050610c3081610c0a565b92915050565b60008060008060808587031215610c5057610c4f610a88565b5b600085013567ffffffffffffffff811115610c6e57610c6d610a8d565b5b610c7a87828801610baa565b945050602085013567ffffffffffffffff811115610c9b57610c9a610a8d565b5b610ca787828801610baa565b9350506040610cb887828801610c21565b925050606085013567ffffffffffffffff811115610cd957610cd8610a8d565b5b610ce587828801610baa565b91505092959194509250565b600060208284031215610d0757610d06610a88565b5b600082013567ffffffffffffffff811115610d2557610d24610a8d565b5b610d3184828501610baa565b91505092915050565b60008115159050919050565b610d4f81610d3a565b82525050565b600081519050919050565b600082825260208201905092915050565b60005b83811015610d8f578082015181840152602081019050610d74565b60008484015250505050565b6000610da682610d55565b610db08185610d60565b9350610dc0818560208601610d71565b610dc981610a9c565b840191505092915050565b6000606082019050610de96000830186610d46565b8181036020830152610dfb8185610d9b565b90508181036040830152610e0f8184610d9b565b9050949350505050565b600080600060608486031215610e3257610e31610a88565b5b600084013567ffffffffffffffff811115610e5057610e4f610a8d565b5b610e5c86828701610baa565b935050602084013567ffffffffffffffff811115610e7d57610e7c610a8d565b5b610e8986828701610baa565b9250506040610e9a86828701610c21565b9150509250925092565b600060208284031215610eba57610eb9610a88565b5b6000610ec884828501610c21565b91505092915050565b600081519050919050565b600082825260208201905092915050565b6000819050602082019050919050565b600082825260208201905092915050565b6000610f1982610d55565b610f238185610efd565b9350610f33818560208601610d71565b610f3c81610a9c565b840191505092915050565b6000610f538383610f0e565b905092915050565b6000602082019050919050565b6000610f7382610ed1565b610f7d8185610edc565b935083602082028501610f8f85610eed565b8060005b85811015610fcb5784840389528151610fac8582610f47565b9450610fb783610f5b565b925060208a01995050600181019050610f93565b50829750879550505050505092915050565b60006060820190508181036000830152610ff78186610d9b565b9050818103602083015261100b8185610d9b565b9050818103604083015261101f8184610f68565b9050949350505050565b7f4f6e6c7920746865206f776e65722063616e20706572666f726d20746869732060008201527f616374696f6e0000000000000000000000000000000000000000000000000000602082015250565b6000611085602683610d60565b915061109082611029565b604082019050919050565b600060208201905081810360008301526110b481611078565b9050919050565b600081905092915050565b60006110d182610d55565b6110db81856110bb565b93506110eb818560208601610d71565b80840191505092915050565b600061110382846110c6565b915081905092915050565b7f436572746966696361746520494420616c726561647920657869737473000000600082015250565b6000611144601d83610d60565b915061114f8261110e565b602082019050919050565b6000602082019050818103600083015261117381611137565b9050919050565b7f4e487b7100000000000000000000000000000000000000000000000000000000600052602260045260246000fd5b600060028204905060018216806111c157607f821691505b6020821081036111d4576111d361117a565b5b50919050565b60008190508160005260206000209050919050565b60006020601f8301049050919050565b600082821b905092915050565b60006008830261123c7fffffffffffffffffffffffffffffffffffffffffffffffffffffffffffffffff826111ff565b61124686836111ff565b95508019841693508086168417925050509392505050565b6000819050919050565b6000819050919050565b600061128d6112886112838461125e565b611268565b61125e565b9050919050565b6000819050919050565b6112a783611272565b6112bb6112b382611294565b84845461120c565b825550505050565b600090565b6112d06112c3565b6112db81848461129e565b505050565b5b818110156112ff576112f46000826112c8565b6001810190506112e1565b5050565b601f82111561134457611315816111da565b61131e846111ef565b8101602085101561132d578190505b611341611339856111ef565b8301826112e0565b50505b505050565b600082821c905092915050565b600061136760001984600802611349565b1980831691505092915050565b60006113808383611356565b9150826002028217905092915050565b61139982610d55565b67ffffffffffffffff8111156113b2576113b1610aad565b5b6113bc82546111a9565b6113c7828285611303565b600060209050601f8311600181146113fa57600084156113e8578287015190505b6113f28582611374565b86555061145a565b601f198416611408866111da565b60005b828110156114305784890151825560018201915060208501945060208101905061140b565b8683101561144d5784890151611449601f891682611356565b8355505b6001600288020188555050505b505050505050565b61146b81610bf8565b82525050565b6000604082019050818103600083015261148b8185610d9b565b905061149a6020830184611462565b939250505056fea2646970667358221220ccc3a9df3434e3927fc71aed355274474a38171f961276be8941a94b4d48f4b564736f6c63430008180033",
  "linkReferences": {},
  "deployedLinkReferences": {}
}